:020000040000FA
:060000000A128A110E280D
:10000800FE00030EF7000408F8000A08F9000A12B7
:100018008A11AF2A0A128A111128F001F101F2019E
:10002800F301F401F50183132030840031300A1202
:100038008A1138230A128A1183010A128A11242884
:100048000A128A11F7220A128A110A128A112E2319
:100058000A128A110A128A1117230A128A110A121D
:100068008A1140230A128A1183120313AA017310FA
:10007800F3107311F3117312A501A601A301A401D2
:10008800B001AF01AE01AD0164008312031306187D
:100098004E284F285E2873185228532861280030AC
:1000A8002602653003192502031C5B285C28612899
:1000B80073146128A501A6017310861864286528A1
:1000C8007428F318682869287728003024026530D6
:1000D80003192302031C712872287728F314772840
:1000E800A301A401F31006197A287B28872873191D
:1000F8007E287F28992865303002031C84288528AB
:10010800992873159928B0017311F31E8C288D282E
:100118009928AA01F3120F30F4040F30F40574087B
:100128000A128A1124230A128A11831203138619C8
:100138009E289F28AC28F319A228A328AF28653049
:100148002F02031CA828A928AF28F3150714AF28E5
:10015800AF01F3110710061AB228B328C028731A82
:10016800B628B7282F2A65302E02031CBC28BD28C4
:10017800C428731687142F2AAE01731287102F2AEA
:100188002F2A01307102F430031970020318CD28A8
:10019800CE28D228851485150515E02885108511E7
:1001A800051103307102E93003197002031CDD28C0
:1001B800DE28E028F001F101071187128512731C6F
:1001C800E628E7284828F31CEA28EB284828AA014B
:1001D800AA0A4828731CF128F2284828F31CF52895
:1001E800F628482801302602F4300319250203189E
:1001F800FE28FF28692A01302402F430031923025B
:10020800031807290829692A0230B3003308AA000D
:100218004828851085110515051085167313F313E5
:10022800F501F001F1010330B3003308AA004828B2
:1002380013307102893003197002031C24292529FF
:100248002A290D30B3003308AA004828731D2D2928
:100258002E29692A0430B3003308AA0048288716D3
:10026800731E372938293A2907113B290715F31630
:100278000F30F404F31D41294229472974080F3926
:100288009038F4005429731E4A294B2950297408C0
:100298000F395038F400542974080F393038F400F5
:1002A80074080A128A1124230A128A11F001F10132
:1002B800053083120313B3003308AA00482803301B
:1002C8007102E93003197002031C6B296C29482854
:1002D8000630B3003308AA004828731E742975290C
:1002E8007729071578290711F001F1010730B300C4
:1002F8003308AA00482813307102893003197002A4
:10030800031C8729882948280830B3003308AA0025
:100318004828731E902991299329071194290715B4
:10032800F001F1010930B3003308AA00482817305A
:100338007102713003197002031CA329A4294828EB
:10034800731FA729A829AD290B30B3003308AA00C9
:1003580048280A30B3003308AA00482873176C29C4
:100368000130B3003308F5070B3075020318BD29B7
:10037800BE29D929F001F1010A128A1145230A126E
:100388008A1174087506F0397506F400F030F40423
:1003980074080A128A1124230A128A110C30831253
:1003A8000313B3003308AA004828F31FDC29DD290A
:1003B800DE2925290E30B3003308AA00482800306A
:1003C8007102513003197002031CEB29EC29EE2944
:1003D800F317A8290A128A1143230A128A11013A2B
:1003E800031DF729F829692A0A128A1109230A1212
:1003F8008A1183120313B3003308F40074080F3909
:100408007506031D082A092AEC29740E0F39083AC3
:1004180003190F2A102AA829EC2907118514051495
:10042800F001F1010F30B3003308AA004828071182
:100438008515162A07307102D13003197002031C82
:10044800262A272A2A2A0510AA01AA0A051187128C
:100458008512F31248282A08B300B4013408003A78
:100468000319372A48283308003A0319C528013ADE
:100478000319EE28033A03190D29013A03191C2917
:10048800073A03193329013A03196329033A03196F
:100498007129013A03197F290F3A03198D29013A65
:1004A80003199B29033A0319B229013A0319B429FC
:1004B800073A0319E329013A0319112A033A0319E0
:1004C8001B2A013A03191E2A482848280A128A11A9
:1004D8000E28013083120313A5070318A60A00305B
:1004E800A60703302602E93003192502031C7D2ADA
:1004F8007E2A822AE830A5000330A6000130A3072F
:100508000318A40A0030A40703302402E9300319B1
:100518002302031C902A912A952AE830A30003306D
:10052800A4000130F6007608B0070130F60076081E
:10053800AF070130F6007608AE070130F6007608FE
:10054800AD070130F0070318F10A0030F1076430F5
:1005580081000B1108008B1EB22AB32ABC2A0B1D7E
:10056800B62AB72ABC2A0A128A116D220A128A11DF
:10057800831603138C1EC12AC22ACD2A83120313A1
:100588008C1EC72AC82ACD2A0A128A11D6220A1214
:100598008A1179088A0078088400770E8300FE0E95
:1005A8007E0E0900831203131A08F6007208203E13
:1005B80084007608831380000130F6007608F2077D
:1005C80003307202031CE92AEA2AEE2A0230F600F6
:1005D8007608F200981CF12AF22AF52A1812181641
:1005E800F2018C120800831203138501860187012A
:1005F800D030831603138500FF30860098308700BB
:1006080006309F000430810008000130F2027208B1
:10061800203E84008313000883120313B1003108BD
:10062800B20032080800903083120313980020307B
:1006380083160313980081309900F2018C16080084
:1006480083120313B1000C1E2A2B2B2B272B3108E6
:100658009900080004308316031381006430831264
:10066800031381008B16080064008001840A0406C5
:10067800031900340406392B8B170B17080072086E
:060688000800F201080069
:02400E00F618A2
:00000001FF
