:060000000A128A110E280D
:10000800FE00030EF1000408F2000A08F3000A12C9
:100018008A11562E0A128A111128F601F701F801E1
:10002800F9018313203084003F300A128A11132704
:100038000A128A1183010A128A1122280A128A11C5
:10004800CE260A128A110A128A11B9260A128A11B0
:100058000A128A1109270A128A110A128A11E0263D
:100068000A128A110A128A1123270A128A11FF30EA
:100078008316031392000730831203139200B5010D
:100088007610F6107611F6117612F612AF01B0015D
:10009800AD01AE01BE01BD01BC01BB01A901AA01B0
:1000A800A701A80164008312031306185C285D28C1
:1000B8006C287618602861286F2800303002653077
:1000C80003192F02031C69286A286F2876146F28E1
:1000D800AF01B00176108618722873288228F618A6
:1000E80076287728852800302E02653003192D02DE
:1000F800031C7F2880288528F6148528AD01AE01C9
:10010800F610061988288928952876198C288D28AC
:10011800A72865303E02031C92289328A728761545
:10012800A728BE017611761F9A289B28A728B50113
:1001380076130F30F8040F30F80578080A128A1180
:10014800FF260A128A11831203138619AC28AD28D8
:10015800BA28F619B028B128BD2865303D02031C1D
:10016800B628B728BD28F6150714BD28BD01F61115
:100178000710061AC028C128CE28761AC428C52810
:10018800D12865303C02031CCA28CB28D128761612
:100198008714D128BC0176128710861AD428D5284E
:1001A800E128F61AD828D928E32865303B02031C31
:1001B800DE28DF28E328F616E328BB01F6126930AB
:1001C80027062804031DE928EA280A292508260401
:1001D800031DEF28F028F82807150130A507031894
:1001E800A60A0030A6070A29693025062604031D39
:1001F800FE28FF280A290F3097006930F4000030E4
:10020800F5000A128A119E260A128A11AA30831250
:10021800031327062804031D122913293329250847
:100228002604031D18291929212907150130A507B6
:100238000318A60A0030A6073329AA302506260483
:10024800031D2729282933290F309700AA30F400E5
:100258000030F5000A128A119E260A128A118312AA
:10026800031327082804031D3A293B293F2997012E
:100278000711A501A60100302A020B300319290233
:10028800031C47294829BB2DA901AA0128082606CD
:10029800031D502927082506031953295429BB2D66
:1002A80028082602031D5A292708250203185D2954
:1002B8005E29772903302602E8300319250203183E
:1002C800662967296D290130A5070318A60A003099
:1002D800A6072608F5002508F4000A128A119E26AA
:1002E8000A128A11BB2D2508260403197C297D29A9
:1002F8006D290130A5020030031CA603A6026D2952
:1003080001302C02F43003192B0203188C298D2993
:1003180091298514851505159F29851085110511C5
:1003280003302C02E93003192B02031C9C299D2958
:100338009F29AB01AC01A701A80187128512761C81
:10034800A629A7295628F61CAA29AB295628B5019B
:10035800B50A5628761CB129B2295628F61CB529A3
:10036800B629562801303002F43003192F02031839
:10037800BE29BF29062E01302E02F43003192D02A2
:100388000318C729C829062E0230C1004108B50044
:10039800562885108511051505108516F613771052
:1003A800F901A301A401AB01AC01B901B801B7017E
:1003B800B6010330C1004108B500562813302C029D
:1003C800893003192B02031CEA29EB29F029113083
:1003D800C1004108B5005628761DF329F429062ED8
:1003E800AB01AC010430C1004108B50056287617AE
:1003F800761EFF29002A032AA701A801102AF61E43
:10040800062A072A0C2AAA30A7000030A800102ABA
:100418006930A7000030A80007302C02D13003193A
:100428002B02031C182A192A562887160F30F8049D
:10043800F61D1F2A202A252A78080F399038F80037
:10044800322A761E282A292A2E2A78080F39503867
:10045800F800322A78080F393038F80078080A127C
:100468008A11FF260A128A1183120313AB01AC0109
:100478000530C1004108B500562813302C028930D8
:1004880003192B02031C492A4A2A4E2A0630C100A6
:100498004108B5000A128A111B270A128A11003A6C
:1004A800031D572A582A5C2A83120313BA016A2AA1
:1004B8005130831203133A02031C632A642A6A2AFE
:1004C8000A128A111F270A128A11582A0A128A1137
:1004D8001B270A128A11013A031D732A742A562807
:1004E8000A128A11F1260A128A1183120313C10013
:1004F8004108F80078080F39003A031D842A852A34
:100508005628780E0F390F3A031D8B2A8C2A562845
:100518001230C1004108B50076130F30F8040F30CF
:10052800F80578080A128A11FF260A128A11562835
:10053800761E9F2AA02AA52A6930A7000030A800A5
:10054800A92A0A30A7000030A800AB01AC01073087
:10055800C1004108B50056282E302C02E13003199D
:100568002B020318B82AB92AC12A230A033003190F
:100578002406031DC02AC12AD22A0B302C02B93006
:1005880003192B02031CC92ACA2A062EA301A40197
:10059800F9010A30C1004108B50056280830C100E9
:1005A8004108B50056280130C1004108F9070B3051
:1005B80079020318E02AE12AFB2ABA010A128A11F1
:1005C8001F270A128A1178087906F0397906F80087
:1005D800F030F80478080A128A11FF260A128A11E4
:1005E800093083120313C1004108B5005628F901E8
:1005F800562851303A02031C022B032B042BAB2A3A
:100608000A128A111B270A128A11013A031D0D2B9F
:100618000E2B062E0A128A11F1260A128A1183124B
:100628000313C1004108F80078080F397906031D43
:100638001E2B1F2BAB2A780E0F39003A0319252BD6
:10064800262BAB2A3B2B2314AB2AA314AB2A231546
:10065800AB2AA315AB2A2316AB2AA316AB2A23175A
:10066800AB2AA317AB2A2414AB2AA414AB2A790803
:10067800C100C2014208003A0319432BAB2A4108C2
:10068800013A0319272B033A0319292B013A0319B5
:100698002B2B073A03192D2B013A03192F2B033A59
:1006A8000319312B013A0319332B0F3A0319352B50
:1006B800013A0319372B033A0319392BAB2A761E53
:1006C800662B672B6C2B0A30A7000030A800792B0B
:1006D800F61E6F2B702B752BAA30A7000030A800D0
:1006E800792B6930A7000030A800AB01AC010B30B2
:1006F800C1004108B5000F30F80478080F39703888
:10070800F80078080A128A11FF260A128A11562858
:1007180027302C02113003192B020318942B952B28
:100728009D2B230A033003192406031D9C2B9D2BA4
:10073800BB2B1F302C02413003192B020318A52BA9
:10074800A62BAA2BF61FA92BAA2B5628A301A40176
:10075800F901F61FB02BB12BB62B0F30C1004108A1
:10076800B50056280E30C1004108B50056280C3097
:10077800C1004108B50056280130C1004108F907F9
:100788000B3079020318C92BCA2BFB2ABA010A12AB
:100798008A111F270A128A1178087906F039790612
:1007A800F800F030F80478080A128A11FF260A12B5
:1007B8008A110D3083120313C1004108B500562871
:1007C80051303A02031CE92BEA2BEF2B0B30C10006
:1007D8004108B50056280A128A111B270A128A11E5
:1007E800013A031DF82BF92B062E0A128A11F1265D
:1007F8000A128A1183120313C1004108F80078080D
:100808000F397906031D092C0A2CEA2B780E0F39AB
:10081800003A0319102C112CEA2B262C2314EA2B4E
:10082800A314EA2B2315EA2BA315EA2B2316EA2B8C
:10083800A316EA2B2317EA2BA317EA2B2414EA2B77
:10084800A414EA2B7908C100C2014208003A03192E
:100858002E2CEA2B4108013A0319122C033A0319EA
:10086800142C013A0319162C073A0319182C013ACB
:1008780003191A2C033A03191C2C013A03191E2CCC
:100888000F3A0319202C013A0319222C033A0319B1
:10089800242CEA2BF6170630C1004108B5000F30AA
:1008A800F80478080F39C038F80078080A128A1155
:1008B800FF260A128A1156280130C1004108F9079B
:1008C8000B3079020318692C6A2C842CBA010A129D
:1008D8008A111F270A128A1178087906F0397906D1
:1008E800F800F030F80478080A128A11FF260A1274
:1008F8008A11103083120313C1004108B50056282D
:10090800771C872C882C8D2C1230C1004108B5002B
:1009180056281330C1004108B500562851303A0214
:10092800031C972C982C9A2C7714B12B0A128A1135
:100938001B270A128A11013A031DA32CA42C062E88
:100948000A128A11F1260A128A1183120313C100AE
:100958004108F80078080F397906031DB42CB52C26
:10096800982C780E0F39023A031DBB2CBC2CC02CD6
:100978000130C1004108B807780E0F39033A031D4A
:10098800C62CC72CCB2C0130C1004108B907780E02
:100998000F39043A031DD12CD22CD62C0130C100BA
:1009A8004108B707780E0F39083A031DDC2CDD2CF7
:1009B800E12C0130C1004108B607780E0F390F3A13
:1009C800031DE72CE82CEC2C0130C1004108B707C7
:1009D800780E0F39083A0319F22CF32CB12B982C06
:1009E8000F30F8040F30F80578080A128A11FF262C
:1009F8000A128A1183120313A701A801851405148A
:100A0800AB01AC011430C1004108B5005628A7015C
:100A1800A80185140514AB01AC01062DA701A80196
:100A28008515062D07302C02D13003192B02031C23
:100A38001E2D1F2DB62D05107808F0390B38F8003B
:100A48003908C100C10E780841060F394106F8007F
:100A580078080A128A11FF260A128A117808F039D2
:100A68000C38F800831203133808C100C10E780847
:100A780041060F394106F80078080A128A11FF2644
:100A88000A128A117808F0390D38F8008312031316
:100A98003708C100C10E780841060F394106F80031
:100AA80078080A128A11FF260A128A117808F03982
:100AB8000E38F800831203133608C100C10E7808F7
:100AC80041060F394106F80078080A128A11FF26F4
:100AD8000A128A11F030F805F61E732D742D792D3F
:100AE80078080F391038F8007B2D0F30F805F61DFF
:100AF8007E2D7F2D8D2D780E0F3983120313C100A3
:100B08000230C107C10E780841060F394106F800C6
:100B1800AC2D761E902D912D9F2D780E0F398312B6
:100B28000313C1000830C107C10E780841060F3908
:100B38004106F800AC2D780E0F3983120313C1005B
:100B48000430C107C10E780841060F394106F80084
:100B580078080A128A11FF260A128A1183120313CF
:100B6800B501B50A05118712851276135628831226
:100B780003133508C100C2014208003A0319C52D04
:100B880056284108003A03198429013A0319AE2965
:100B9800033A0319CD29013A0319E229073A03193F
:100BA800FB29013A0319412A033A03199C2A013AFD
:100BB8000319B02A0F3A0319D72A013A0319FD2A53
:100BC800033A0319632B013A03198C2B073A0319CB
:100BD800C02B013A0319E42B033A03194E2C013AAE
:100BE8000319602C1F3A0319922C013A0319F42CAB
:100BF800033A03190B2D013A0319122D073A031969
:100C0800162D562856280A128A110E2801308312EA
:100C18000313AF070318B00A0030B00703303002DF
:100C2800E93003192F02031C1A2E1B2E1F2EE83041
:100C3800AF000330B0000130AD070318AE0A003032
:100C4800AE0703302E02E93003192D02031C2D2EA6
:100C58002E2E322EE830AD000330AE000130F00009
:100C68007008BE070130F0007008BD070130F000C1
:100C78007008BC070130F0007008BB070130AB07F3
:100C88000318AC0A0030AC070130A9070318AA0AF8
:100C98000030AA070130F0007008BA0764308100FC
:100CA8000B1108008B1E592E5A2E632E0B1D5D2E1C
:100CB8005E2E632E0A128A110A260A128A118316D8
:100CC80003138C1E682E692E742E831203138C1E38
:100CD8006E2E6F2E742E0A128A117D260A128A1120
:100CE80073088A0072088400710E8300FE0E7E0E5F
:100CF8000900831203131A08F0003108203E84000B
:100D08007008831380000130F0007008B1070330C9
:100D18003102031C902E912E952E0230F00070089F
:100D2800B100981C982E992E9C2E18121816B101F5
:100D38008C120800750883120313C0007408BF00E2
:100D48000310C00CBF0C0310C00CBF0C3F0895006B
:100D58007408BF0003300310BF0DFF3E031DAF2E04
:100D680003103F0D1704970008000F308312031378
:100D78009700FF3083160313920007308312031382
:100D880092000030F400F5000A128A119E260A1219
:100D98008A11080083120313850186018701D03068
:100DA800831603138500FF308600903087000630D5
:100DB8009F000430810008009030831203139800CC
:100DC800203083160313980081309900831203138F
:100DD800B101831603138C16080001308312031324
:100DE800B1023108203E840083130008F40074081F
:100DF800F50075080800F400831203130C1E052F74
:100E0800062F002F74089900080004308316031376
:100E1800810064308312031381008B16080064007C
:100E28008001840A0406031900340406142F83126F
:100E380003133108080083120313B10108008B174C
:040E48000B1708007C
:08400000FF3FFF3FFF3FFF3FC0
:02400E00761822
:00000001FF
