:060000000A128A110E280D
:10000800FE00030EF1000408F2000A08F3000A12C9
:100018008A117B2E0A128A111128F601F701F801BC
:10002800F90183132030840041300A128A113227E3
:100038000A128A1183010A128A1122280A128A11C5
:10004800EF260A128A110A128A11DA260A128A116E
:100058000A128A1128270A128A110A128A110127FC
:100068000A128A110A128A1142270A128A11FF30CB
:100078008316031392000730831203139200B5010D
:100088007610F6107611F6117612F612AF01B0015D
:10009800AD01AE01C001BF01BE01BD01A901AA01A8
:1000A800A701A80164008312031306185C285D28C1
:1000B8006C287618602861286F2800303002653077
:1000C80003192F02031C69286A286F2876146F28E1
:1000D800AF01B00176108618722873288228F618A6
:1000E80076287728852800302E02653003192D02DE
:1000F800031C7F2880288528F6148528AD01AE01C9
:10010800F610061988288928952876198C288D28AC
:10011800A72865304002031C92289328A728761543
:10012800A728C0017611761F9A289B28A728B50111
:1001380076130F30F8040F30F80578080A128A1180
:100148001E270A128A11831203138619AC28AD28B8
:10015800BA28F619B028B128BD2865303F02031C1B
:10016800B628B728BD28F6150714BD28BF01F61113
:100178000710061AC028C128CE28761AC428C52810
:10018800D12865303E02031CCA28CB28D128761610
:100198008714D128BE0176128710861AD428D5284C
:1001A800E128F61AD828D928E32865303D02031C2F
:1001B800DE28DF28E328F616E328BD01F6126930A9
:1001C80027062804031DE928EA280A292508260401
:1001D800031DEF28F028F82807150130A507031894
:1001E800A60A0030A6070A29693025062604031D39
:1001F800FE28FF280A290F3097006930F4000030E4
:10020800F5000A128A11BF260A128A11AA3083122F
:10021800031327062804031D122913293329250847
:100228002604031D18291929212907150130A507B6
:100238000318A60A0030A6073329AA302506260483
:10024800031D2729282933290F309700AA30F400E5
:100258000030F5000A128A11BF260A128A11831289
:10026800031327082804031D3A293B293F2997012E
:100278000711A501A60100302A020B300319290233
:10028800031C47294829E02DA901AA0128082606A8
:10029800031D502927082506031953295429E02D41
:1002A80028082602031D5A292708250203185D2954
:1002B8005E29772903302602E8300319250203183E
:1002C800662967296D290130A5070318A60A003099
:1002D800A6072608F5002508F4000A128A11BF2689
:1002E8000A128A11E02D2508260403197C297D2984
:1002F8006D290130A5020030031CA603A6026D2952
:1003080001302C02F43003192B0203188C298D2993
:1003180091298514851505159F29851085110511C5
:1003280003302C02E93003192B02031C9C299D2958
:100338009F29AB01AC01A701A80187128512761C81
:10034800A629A7295628F61CAA29AB295628B5019B
:10035800B50A5628761CB129B229CA29F61CB5292E
:10036800B629CA2901303002F43003192F020318C4
:10037800BE29BF29CA2901302E02F43003192D02E3
:100388000318C729C829CA290230B500771CCD2906
:10039800CE29562836080319D229D329ED29013048
:1003A8002C02F43003192B020318DB29DC29DE297F
:1003B8008514DF29851003302C02E93003192B023C
:1003C800031CE729E82956280130B602AB01AC0125
:1003D800562885145628851085110515051085168B
:1003E800F6137710F901A301A401AB01AC01BB011D
:1003F800BA01B901B801B6010330B5005628133067
:100408002C02893003192B02031C0B2A0C2A0F2AF1
:100418001130B5005628761D122A132A2B2EAB014F
:10042800AC010430B50056287617761E1C2A1D2A02
:10043800202AA701A8012D2AF61E232A242A292AC0
:10044800AA30A7000030A8002D2A6930A700003084
:10045800A80007302C02D13003192B02031C352ABF
:10046800362A562887160F30F804F61D3C2A3D2AEE
:10047800422A78080F399038F8004F2A761E452A04
:10048800462A4B2A78080F395038F8004F2A78083E
:100498000F393038F80078080A128A111E270A1214
:1004A8008A1183120313AB01AC010530B50056283D
:1004B80013302C02893003192B02031C642A652A85
:1004C800672A0630B5000A128A113A270A128A11D9
:1004D800003A031D702A712A752A83120313BC017E
:1004E800832A5130831203133C02031C7C2A7D2A81
:1004F800832A0A128A113E270A128A11712A0A12BD
:100508008A113A270A128A11013A031D8C2A8D2A68
:1005180056280A128A1112270A128A11F800780836
:100528000F39003A031D992A9A2A5628780E0F394E
:100538000F3A031DA02AA12A56281230831203134A
:10054800B50076130F30F8040F30F80578080A1252
:100558008A111E270A128A115628761EB42AB52A2D
:10056800BA2A6930A7000030A800BE2A0A30A700BE
:100578000030A800AB01AC01073083120313B500AB
:1005880056282E302C02E13003192B020318CD2AED
:10059800CE2AD62A230A033003192406031DD52A96
:1005A800D62AE52A0B302C02B93003192B02031C7A
:1005B800DE2ADF2A2B2EA301A401F9010A30B50097
:1005C80056280830B50056280130C3004308F907FB
:1005D8000B3079020318F12AF22A0A2BBC010A12FD
:1005E8008A113E270A128A1178087906F0397906A5
:1005F800F800F030F80478080A128A111E270A1247
:100608008A11093083120313B5005628F9015628B8
:1006180051303C02031C112B122B132BC02A0A1237
:100628008A113A270A128A11013A031D1C2B1D2B25
:100638002B2E0A128A1112270A128A11F80078083A
:100648000F397906031D292B2A2BC02A780E0F395A
:10065800003A0319302B312BC02A462B2314C02A09
:10066800A314C02A2315C02AA315C02A2316C02AFA
:10067800A316C02A2317C02AA317C02A2414C02AE5
:10068800A414C02A790883120313C300C4014408C0
:10069800003A0319502BC02A4308013A0319322B98
:1006A800033A0319342B013A0319362B073A031975
:1006B800382B013A03193A2B033A03193C2B013A18
:1006C80003193E2B0F3A0319402B013A0319422B09
:1006D800033A0319442BC02A761E732B742B792BEB
:1006E8000A30A7000030A800862BF61E7C2B7D2B35
:1006F800822BAA30A7000030A800862B6930A700FB
:100708000030A800AB01AC010B30B5000F30F80485
:1007180078080F397038F80078080A128A111E27ED
:100728000A128A11562827302C02113003192B027D
:1007380003189F2BA02BA82B230A03300319240688
:10074800031DA72BA82BC42B1F302C0241300319E3
:100758002B020318B02BB12BB52BF61FB42BB52BDE
:100768005628A301A401F901F61FBB2BBC2BC12BF2
:100778000F3083120313B50056280E30B5005628E3
:100788000C30B50056280130C3004308F9070B3078
:1007980079020318D02BD12B0A2BBC010A128A111B
:1007A8003E270A128A1178087906F0397906F80086
:1007B800F030F80478080A128A111E270A128A11E2
:1007C8000D3083120313B500562851303C02031C28
:1007D800EE2BEF2BF42B0B3083120313B5005628A6
:1007E8000A128A113A270A128A11013A031DFD2BAF
:1007F800FE2B2B2E0A128A1112270A128A11F800D0
:1008080078080F397906031D0A2C0B2CEF2B780E6C
:100818000F39003A0319112C122CEF2B272C231413
:10082800EF2BA314EF2B2315EF2BA315EF2B231678
:10083800EF2BA316EF2B2317EF2BA317EF2B241463
:10084800EF2BA414EF2B790883120313C300C40100
:100858004408003A0319312CEF2B4308013A0319D5
:10086800132C033A0319152C013A0319172C073ACC
:100878000319192C013A03191B2C033A03191D2CCF
:10088800013A03191F2C0F3A0319212C013A0319B5
:10089800232C033A0319252CEF2BF6170630B50045
:1008A8000F30F80478080F39C038F80078080A12B1
:1008B8008A111E270A128A1156280130C3004308DC
:1008C800F9070B30790203186A2C6B2C842CB701BA
:1008D800BC010A128A113E270A128A117808790681
:1008E800F0397906F800F030F80478080A128A110D
:1008F8001E270A128A11103083120313B5005628D6
:10090800771C872C882C8B2C1230B5005628133076
:10091800B500562851303C02031C932C942CB82C5B
:10092800033037020318992C9A2CB22C0130C300DB
:100938004308B707BC010A128A113E270A128A1116
:1009480078087906F0397906F800F030F804780864
:100958000A128A111E270A128A117F2C7714790825
:10096800B6000F30B50056280A128A113A270A1223
:100978008A11013A031DC12CC22C2B2E0A128A118E
:1009880012270A128A11F80078080F397906031D10
:10099800CE2CCF2C172D780E0F39023A031DD52CEB
:1009A800D62CDC2C013083120313C3004308BA078A
:1009B800780E0F39033A031DE22CE32CE92C0130A1
:1009C80083120313C3004308BB07780E0F39043A98
:1009D800031DEF2CF02CF62C013083120313C300F7
:1009E8004308B907780E0F39083A031DFC2CFD2C73
:1009F800032D013083120313C3004308B807780E90
:100A08000F390F3A031D092D0A2D102D01308312BD
:100A18000313C3004308B907780E0F39083A0319BE
:100A2800162D172DBC2B7714BC2B0F30F8040F3064
:100A3800F80578080A128A111E270A128A118312E9
:100A48000313A701A80185140514AB01AC011430E8
:100A5800B5005628A701A80185140514AB01AC01FF
:100A68002B2DA701A80185152B2D07302C02D1307D
:100A780003192B02031C412D422DDB2D051078088C
:100A8800F0390B38F8003B08C300C30E780843065A
:100A98000F394306F80078080A128A111E270A122D
:100AA8008A117808F0390C38F800831203133A08D1
:100AB800C300C30E780843060F394306F8007808C8
:100AC8000A128A111E270A128A117808F0390D387D
:100AD800F800831203133908C300C30E78084306CD
:100AE8000F394306F80078080A128A111E270A12DD
:100AF8008A117808F0390E38F80083120313380881
:100B0800C300C30E780843060F394306F800780877
:100B18000A128A111E270A128A11F030F805F61EE9
:100B2800962D972D9C2D78080F391038F8009E2D9A
:100B38000F30F805F61DA12DA22DB02D780E0F3916
:100B480083120313C3000230C307C30E7808430699
:100B58000F394306F800CF2D761EB32DB42DC22DC4
:100B6800780E0F3983120313C3000830C307C30E6E
:100B7800780843060F394306F800CF2D780E0F3951
:100B880083120313C3000430C307C30E7808430657
:100B98000F394306F80078080A128A111E270A122C
:100BA8008A1183120313AB01AC01B501B50A051113
:100BB8008712851276135628831203133508C3004B
:100BC800C4014408003A0319EA2D56284308003A9C
:100BD80003198429013A0319AE29033A0319EF29A5
:100BE800013A0319032A073A0319182A013A031983
:100BF8005C2A033A0319B12A013A0319C52A0F3AA4
:100C08000319E82A013A03190C2B033A0319702B2C
:100C1800013A0319972B073A0319C72B013A03190D
:100C2800E92B033A0319512C013A0319612C1F3A95
:100C380003198E2C013A0319192D033A03192E2D85
:100C4800013A0319352D073A0319392D5628562824
:100C58000A128A110E28013083120313AF070318F2
:100C6800B00A0030B00703303002E93003192F0210
:100C7800031C3F2E402E442EE830AF000330B00056
:100C88000130AD070318AE0A0030AE0703302E025C
:100C9800E93003192D02031C522E532E572EE8302B
:100CA800AD000330AE000130F0007008C00701301D
:100CB800F0007008BF070130F0007008BE0701306F
:100CC800F0007008BD070130AB070318AC0A00300C
:100CD800AC070130A9070318AA0A0030AA07013097
:100CE800F0007008BC07643081000B1108008B1EEF
:100CF8007E2E7F2E882E0B1D822E832E882E0A1282
:100D08008A112F260A128A11831603138C1E8D2E20
:100D18008E2E992E831203138C1E932E942E992EA9
:100D28000A128A11A2260A128A1173088A00720806
:100D38008400710E8300FE0E7E0E090083120313D9
:100D48003108203E84001A08831380000130F00027
:100D58007008B10703303102031CB32EB42EB62E2F
:100D68000230B100981CB92EBA2EBD2E18121816D2
:100D7800B1018C120800750883120313C2007408AD
:100D8800C1000310C20CC10C0310C20CC10C4108F5
:100D980095007408C10003300310C10DFF3E031D08
:100DA800D02E0310410D1704970008000F3083124E
:100DB80003139700FF308316031392000730831242
:100DC800031392000030F400F5000A128A11BF26BE
:100DD8000A128A110800831203138501860187010C
:100DE800D030831603138500FF30860090308700CB
:100DF80006309F00043081000800903083120313EE
:100E080098002030831603139800813099008312CC
:100E18000313B101831603138C16080001308312E3
:100E28000313B1023108203E840083130008F40044
:100E380074080800F400831203130C1E242F252FB6
:100E48001F2F7408990008000430831603138100CB
:100E580064308312031381008B160800640080013C
:100E6800840A0406031900340406332F831203137B
:100E78003108080083120313B10108008B170B1700
:020E8800080060
:08400000FF3FFF3FFF3FFF3FC0
:02400E00761822
:00000001FF
