:020000040000FA
:060000000A128A110E280D
:10000800FE00030EF1000408F2000A08F3000A12C9
:100018008A11182B0A128A111128F601F701F80122
:10002800F90183132030840036300A128A11D02354
:100038000A128A1183010A128A1122280A128A11C5
:1000480091230A128A110A128A11C6230A128A11E6
:100058000A128A117C230A128A110A128A11A3230E
:100068000A128A110A128A11D8230A128A118312D3
:100078000313B0017610F6107611F6117612AB0163
:10008800AC01A901AA01B501B401B301B201A501EE
:10009800A601640083120313061853285428632802
:1000A800761857285828662800302C02653003191E
:1000B8002B02031C60286128662876146628AB0189
:1000C800AC017610861869286A287928F6186D28F0
:1000D8006E287C2800302A02653003192902031C87
:1000E800762877287C28F6147C28A901AA01F6101E
:1000F80006197F2880288C287619832884288E283A
:1001080065303502031C89288A288E2876158E28A2
:10011800B50176118619912892289E28F6199528F6
:100128009628A02865303402031C9B289C28A02808
:10013800F615A028B401F611061AA328A428B02899
:10014800761AA728A828B22865303302031CAD28E0
:10015800AE28B2287616B228B30176129630250654
:100168002604031DB828B928C8289630F4000030A2
:10017800F5000A128A1160230A128A119630831236
:100188000313A3000030A40025082604031DCD286E
:10019800CE28DA280030F400F5000A128A1160230C
:1001A8000A128A1183120313A301A4010B3032022D
:1001B800031CDF28E028962AB20126082406031D1E
:1001C800E728250823060319EA28EB28962A260893
:1001D8002402031DF128250823020318F428F52812
:1001E80005290130A3070318A40A0030A40724082E
:1001F800F5002308F4000A128A1160230A128A11F2
:10020800962A0130A3020030031CA403A402FB2891
:1002180001302802F53003192702031C1429152977
:100228005529A701A801050C0139B8000130B80605
:10023800B80D05083806FD3938068500050CB800E4
:10024800B80C380C0139B8000130B806B80DB80D33
:10025800B80D05083806F73938068500050CB800CA
:10026800380C0139B8000130B806B80DB80D0508CA
:100278003806FB393806850007080139B80001300F
:10028800B80607083806FE3938068700070C013912
:10029800B8000130B806B80D07083806FD39380629
:1002A8008700761C582959294D28F61C5C295D2998
:1002B8004D28B001B00A4D28761C632964297E298F
:1002C800F61C672968297E2901302C02F4300319AD
:1002D8002B020318702971297E2901302A02F43073
:1002E80003192902031879297A297E290230B800CE
:1002F8003808B000F61D812982298829F61A85292F
:100308008629D22AF6164D28F61E8B298C29D22A40
:10031800F6124D28851085110515051085167613DA
:10032800F613B101A701A8010330B8003808B000DE
:100338004D2813302802893003192702031CA529E8
:10034800A629AB290D30B8003808B0004D28761D15
:10035800AE29AF29D22A0430B8003808B0004D2899
:1003680087169630A5000030A600F030F905790808
:100378001F39A038F90079080A128A11BC230A1219
:100388008A1183120313A701A8010530B8003808A1
:10039800B0004D2803302802E93003192702031C56
:1003A800D629D7294D280630B8003808B0004D287E
:1003B8005030A5000030A600A701A8010730B800FA
:1003C8003808B0004D281330280289300319270255
:1003D800031CEF29F0294D28761FF329F429F92960
:1003E8000B30B8003808B0004D280830B80038087D
:1003F800B0004D287830A5000030A600A701A8015C
:100408000930B8003808B0004D281730280271307C
:1004180003192702031C112A122A4D280A30B80092
:100428003808B0004D287617D7290130B8003808A9
:10043800B1070A3031020318222A232A3E2AA701CB
:10044800A8010A128A11DD230A128A117908831277
:1004580003133106F0393106F90079080A128A11B6
:10046800BC230A128A110C3083120313B80038080F
:10047800B0004D28F61F412A422A432AA6290E30E9
:10048800B8003808B0004D28003028025130031950
:100498002702031C502A512A532AF617F4290A1254
:1004A8008A11DB230A128A11013A031D5C2A5D2A8C
:1004B800D22A0A128A11B0230A128A11831203134C
:1004C800B8003808F90079080F393106031D6D2A7C
:1004D8006E2A512A790EB800380C0739033A0319E5
:1004E800762A772AF429512AA501A601851405142C
:1004F800A701A8010F30B8003808B0004D28A501A1
:10050800A60185157E2A07302802D1300319270253
:10051800031C8F2A902A932A0510B001B00A87126B
:1005280085124D28831203133008B800B901390821
:10053800003A0319A02A4D283808003A03190C2953
:10054800013A03196029033A03198E29013A03195C
:100558009D29073A0319B429013A0319CE29033A08
:100568000319DC29013A0319E7290F3A0319FE296F
:10057800013A0319092A033A0319172A013A0319F8
:10058800192A073A0319482A013A0319782A033A1B
:100598000319832A013A0319872A4D284D280A127C
:1005A8008A110E28013083120313AB070318AC0A13
:1005B8000030AC0703302C02E93003192B02031C6E
:1005C800E62AE72AEB2AE830AB000330AC0001301A
:1005D800A9070318AA0A0030AA0703302A02E9303B
:1005E80003192902031CF92AFA2AFE2AE830A9006D
:1005F8000330AA000130F0007008B5070130F000A0
:100608007008B4070130F0007008B3070130F0003B
:100618007008B2070130A7070318A80A0030A80716
:10062800643081000B1108008B1E1B2B1C2B252B03
:100638000B1D1F2B202B252B0A128A11D6220A12DA
:100648008A11831603138C1E2A2B2B2B362B83120D
:1006580003138C1E302B312B362B0A128A113F23A1
:100668000A128A1173088A0072088400710E8300C6
:10067800FE0E7E0E0900831203131A08F000780894
:10068800203E84007008831380000130F000700859
:10069800F80703307802031C522B532B572B0230D8
:1006A800F0007008F800981C5A2B5B2B5E2B181270
:1006B8001816F8018C120800750883120313B70086
:1006C8007408B6000310B70CB60C0310B70CB60CC0
:1006D8003608950074080339B60004300310B60DC7
:1006E800FF3E031D722B1708CF3936049700080008
:1006F8000F30831203139700FF3083160313920001
:1007080004308312031392000030F400F5000A123B
:100718008A1160230A128A110800831203138501C3
:1007280086018701D030831603138500FF308600C9
:100738009830870006309F0007308100080090300D
:100748008312031398002030831603139800813016
:100758009900F8018C1608000130F8027808203E4C
:10076800840083130008F4007408F5007508080075
:10077800F400831203130C1EC22BC32BBD2B740869
:100788009900080004308316031381006430831233
:10079800031381008B16080064008001840A040694
:1007A800031900340406D12B8B170B17080078089F
:0607B8000800F801080032
:02400E00460E5C
:00000001FF
