:060000000A128A110E280D
:10000800FE00030EF1000408F2000A08F3000A12C9
:100018008A118F2E0A128A111128F601F701F801A8
:10002800F90183132030840042300A128A114627CE
:100038000A128A1183010A128A1122280A128A11C5
:1000480003270A128A110A128A11EE260A128A1145
:100058000A128A113C270A128A110A128A111527D4
:100068000A128A110A128A1156270A128A11FF30B7
:100078008316031392000730831203139200B5010D
:100088007610F6107611F6117612F612AF01B0015D
:10009800AD01AE01C101C001BF01BE01A901AA01A4
:1000A800A701A80164008312031306185C285D28C1
:1000B8006C287618602861286F2800303002653077
:1000C80003192F02031C69286A286F2876146F28E1
:1000D800AF01B00176108618722873288228F618A6
:1000E80076287728852800302E02653003192D02DE
:1000F800031C7F2880288528F6148528AD01AE01C9
:10010800F610061988288928952876198C288D28AC
:10011800A72865304102031C92289328A728761542
:10012800A728C1017611761F9A289B28A728B50110
:1001380076130F30F8040F30F80578080A128A1180
:1001480032270A128A11831203138619AC28AD28A4
:10015800BA28F619B028B128BD2865304002031C1A
:10016800B628B728BD28F6150714BD28C001F61112
:100178000710061AC028C128CE28761AC428C52810
:10018800D12865303F02031CCA28CB28D12876160F
:100198008714D128BF0176128710861AD428D5284B
:1001A800E128F61AD828D928E32865303E02031C2E
:1001B800DE28DF28E328F616E328BE01F6126930A8
:1001C80027062804031DE928EA280A292508260401
:1001D800031DEF28F028F82807150130A507031894
:1001E800A60A0030A6070A29693025062604031D39
:1001F800FE28FF280A290F3097006930F4000030E4
:10020800F5000A128A11D3260A128A11AA3083121B
:10021800031327062804031D122913293329250847
:100228002604031D18291929212907150130A507B6
:100238000318A60A0030A6073329AA302506260483
:10024800031D2729282933290F309700AA30F400E5
:100258000030F5000A128A11D3260A128A11831275
:10026800031327082804031D3A293B293F2997012E
:100278000711A501A60100302A020B300319290233
:10028800031C47294829F42DA901AA012808260694
:10029800031D502927082506031953295429F42D2D
:1002A80028082602031D5A292708250203185D2954
:1002B8005E29772903302602E8300319250203183E
:1002C800662967296D290130A5070318A60A003099
:1002D800A6072608F5002508F4000A128A11D32675
:1002E8000A128A11F42D2508260403197C297D2970
:1002F8006D290130A5020030031CA603A6026D2952
:1003080001302C02F43003192B0203188C298D2993
:1003180091298514851505159F29851085110511C5
:1003280003302C02E93003192B02031C9C299D2958
:100338009F29AB01AC01A701A801871285120712FA
:10034800761CA729A8295628F61CAB29AC295628BB
:10035800B501B50A5628761CB229B329CB29F61C53
:10036800B629B729CB2901303002F43003192F02FE
:100378000318BF29C029CB2901302E02F4300319F4
:100388002D020318C829C929CB290230B500771CCA
:10039800CE29CF29562837080319D329D429EE297D
:1003A80001302C02F43003192B020318DC29DD2953
:1003B800DF298514E029851003302C02E930031960
:1003C8002B02031CE829E92956280130B702AB01A2
:1003D800AC01562885145628851085110515051079
:1003E80085160716B601B60AF6137710F901A301A8
:1003F800A401AB01AC01BC01BB01BA01B901B70151
:100408000330B500562813302C02893003192B020B
:10041800031C0F2A102A132A1130B5005628761DFE
:10042800162A172A3F2EAB01AC010430B500562816
:100438007617761E202A212A242AA701A801312A04
:10044800F61E272A282A2D2AAA30A7000030A8003D
:10045800312A6930A7000030A80007302C02D130BB
:1004680003192B02031C392A3A2A562887160F30FB
:10047800F804F61D402A412A462A78080F39903890
:10048800F800532A761E492A4A2A4F2A78080F3933
:100498005038F800532A78080F393038F8007808AF
:1004A8000A128A1132270A128A1183120313AB0126
:1004B800AC010530B500562813302C0289300319D9
:1004C8002B02031C682A692A6B2A0630B5000A1217
:1004D8008A114E270A128A11003A031D742A752AB6
:1004E800792A83120313BD01872A5130831203131B
:1004F8003D02031C802A812A872A0A128A11522760
:100508000A128A11752A0A128A114E270A128A11AA
:10051800013A031D902A912A56280A128A11262781
:100528000A128A11F80078080F39003A031D9D2A2B
:100538009E2A5628780E0F390F3A031DA42AA52A99
:100548005628123083120313B50076130F30F804BF
:100558000F30F80578080A128A1132270A128A1110
:100568005628761EB82AB92ABE2A6930A700003054
:10057800A800C22A0A30A7000030A800AB01AC01CD
:10058800073083120313B50056282E302C02E130B1
:1005980003192B020318D12AD22ADA2A230A033094
:1005A80003192406031DD92ADA2AE92A0B302C025A
:1005B800B93003192B02031CE22AE32A3F2EA301B8
:1005C800A401F9010A30B50056280830B5005628AC
:1005D8000130C4004408F9070B3079020318F52AE2
:1005E800F62A0E2BBD010A128A1152270A128A1105
:1005F80078087906F0397906F800F030F8047808B8
:100608000A128A1132270A128A1109308312031337
:10061800B5005628F901562851303D02031C152B08
:10062800162B172BC42A0A128A114E270A128A116E
:10063800013A031D202B212B3F2E0A128A1126274F
:100648000A128A11F80078080F397906031D2D2B34
:100658002E2BC42A780E0F39003A0319342B352B68
:10066800C42A4A2B2314C42AA314C42A2315C42A2F
:10067800A315C42A2316C42AA316C42A2317C42AD6
:10068800A317C42A2414C42AA414C42A79088312D8
:100698000313C400C5014508003A0319542BC42AA2
:1006A8004408013A0319362B033A0319382B013A47
:1006B80003193A2B073A03193C2B013A03193E2B2D
:1006C800033A0319402B013A0319422B0F3A031935
:1006D800442B013A0319462B033A0319482BC42A21
:1006E800761E772B782B7D2B0A30A7000030A800C8
:1006F8008A2BF61E802B812B862BAA30A700003070
:10070800A8008A2B6930A7000030A800AB01AC0113
:100718000B30B5000F30F80478080F397038F8003E
:1007280078080A128A1132270A128A1156282730A5
:100738002C02113003192B020318A32BA42BAC2B6A
:10074800230A033003192406031DAB2BAC2BCD2B36
:1007580004303602031CB12BB22BBA2BA301A4011F
:10076800F9010F3083120313B50056281F302C02ED
:10077800413003192B02031CC22BC32B5628A3019B
:10078800A401F901AB01AC010F30F8050E30B5003A
:1007980056280C30B50056280130C4004408F90723
:1007A8000B3079020318D92BDA2B0E2BBD010A1254
:1007B8008A1152270A128A1178087906F0397906BF
:1007C800F800F030F80478080A128A1132270A1261
:1007D8008A110D3083120313B500562851303D029B
:1007E800031CF72BF82BFD2B0B3083120313B500DA
:1007F80056280A128A114E270A128A11013A031D35
:10080800062C072C3F2E0A128A1126270A128A1153
:10081800F80078080F397906031D132C142CF82BCF
:10082800780E0F39003A03191A2C1B2CF82B302C90
:100838002314F82BA314F82B2315F82BA315F82B46
:100848002316F82BA316F82B2317F82BA317F82B2E
:100858002414F82BA414F82B790883120313C4006A
:10086800C5014508003A03193A2CF82B4408013A07
:1008780003191C2C033A03191E2C013A0319202CC6
:10088800073A0319222C013A0319242C033A0319B5
:10089800262C013A0319282C0F3A03192A2C013A5D
:1008A80003192C2C033A03192E2CF82B0130C40001
:1008B8004408B60704303602031C632C642C652CEC
:1008C8000712F6170630B5000F30F80478080F390C
:1008D800C038F80078080A128A1132270A128A11D9
:1008E80056280130C4004408F9070B307902031870
:1008F8007E2C7F2C982CB801BD010A128A11522730
:100908000A128A1178087906F0397906F800F03069
:10091800F80478080A128A1132270A128A1110304C
:1009280083120313B5005628771C9B2C9C2C9F2CF4
:100938001230B50056281330B500562851303D0204
:10094800031CA72CA82CCC2C033038020318AD2C80
:10095800AE2CC62C0130C4004408B807BD010A12E9
:100968008A1152270A128A1178087906F03979060D
:10097800F800F030F80478080A128A1132270A12AF
:100988008A11932C77147908B7000F30B5005628D0
:100998000A128A114E270A128A11013A031DD52C10
:1009A800D62C3F2E0A128A1126270A128A11F8001D
:1009B80078080F397906031DE22CE32C2B2D780ECD
:1009C8000F39023A031DE92CEA2CF02C013083126E
:1009D8000313C4004408BB07780E0F39033A031DFC
:1009E800F62CF72CFD2C013083120313C4004408A5
:1009F800BC07780E0F39043A031D032D042D0A2D68
:100A0800013083120313C4004408BA07780E0F3963
:100A1800083A031D102D112D172D013083120313D1
:100A2800C4004408B907780E0F390F3A031D1D2D6D
:100A38001E2D242D013083120313C4004408BA0765
:100A4800780E0F39083A03192A2D2B2DB52B771458
:100A5800B52B0F30F8040F30F80578080A128A1100
:100A680032270A128A1183120313A701A8018514D9
:100A78000514AB01AC011430B5005628A701A80134
:100A880085140514AB01AC013F2DA701A8018515FC
:100A98003F2D07302C02D13003192B02031C552D92
:100AA800562DEF2D05107808F0390B38F8003C0862
:100AB800C400C40E780844060F394406F8007808C4
:100AC8000A128A1132270A128A117808F0390C386A
:100AD800F800831203133B08C400C40E78084406C8
:100AE8000F394406F80078080A128A1132270A12C8
:100AF8008A117808F0390D38F800831203133A0880
:100B0800C400C40E780844060F394406F800780873
:100B18000A128A1132270A128A117808F0390E3817
:100B2800F800831203133908C400C40E7808440679
:100B38000F394406F80078080A128A1132270A1277
:100B48008A11F030F805F61EAA2DAB2DB02D7808C5
:100B58000F391038F800B22D0F30F805F61DB52DF5
:100B6800B62DC42D780E0F3983120313C40002303A
:100B7800C407C40E780844060F394406F800E32D6C
:100B8800761EC72DC82DD62D780E0F398312031364
:100B9800C4000830C407C40E780844060F39440658
:100BA800F800E32D780E0F3983120313C4000430C4
:100BB800C407C40E780844060F394406F8007808BC
:100BC8000A128A1132270A128A1183120313AB01FF
:100BD800AC01B501B50A051187128512761356289E
:100BE800831203133508C400C5014508003A0319E8
:100BF800FE2D56284408003A03198429013A03199E
:100C0800AF29033A0319F029013A0319072A073AC9
:100C180003191C2A013A0319602A033A0319B52A51
:100C2800013A0319C92A0F3A0319EC2A013A0319A0
:100C3800102B033A0319742B013A03199B2B073A1B
:100C48000319D02B013A0319F22B033A03195A2C32
:100C5800013A0319752C1F3A0319A22C013A0319FA
:100C68002D2D033A0319422D013A0319492D073A4C
:100C780003194D2D562856280A128A110E280130BC
:100C880083120313AF070318B00A0030B00703300C
:100C98003002E93003192F02031C532E542E582E0C
:100CA800E830AF000330B0000130AD070318AE0ADA
:100CB8000030AE0703302E02E93003192D02031C61
:100CC800662E672E6B2EE830AD000330AE00013083
:100CD800F0007008C1070130F0007008C00701304B
:100CE800F0007008BF070130F0007008BE0701303F
:100CF800AB070318AC0A0030AC070130A90703188A
:100D0800AA0A0030AA070130F0007008BD07643055
:100D180081000B1108008B1E922E932E9C2E0B1D0A
:100D2800962E972E9C2E0A128A1143260A128A1191
:100D3800831603138C1EA12EA22EAD2E831203132D
:100D48008C1EA72EA82EAD2E0A128A11B6260A12BC
:100D58008A1173088A0072088400710E8300FE0EDF
:100D68007E0E0900831203133108203E84001A08FE
:100D7800831380000130F0007008B107033031029E
:100D8800031CC72EC82ECA2E0230B100981CCD2EC7
:100D9800CE2ED12E18121816B1018C120800750823
:100DA80083120313C3007408C2000310C30CC20CDF
:100DB8000310C30CC20C420895007408C20003302B
:100DC8000310C20DFF3E031DE42E0310420D17044D
:100DD800970008000F30831203139700FF30831623
:100DE8000313920007308312031392000030F400BB
:100DF800F5000A128A11D3260A128A1108008312F2
:100E08000313850186018701D030831603138500FB
:100E1800FF3086008030870006309F000430810054
:100E280008009030831203139800203083160313B0
:100E380098008130990083120313B10183160313BC
:100E48008C160800013083120313B1023108203ECA
:100E5800840083130008F40074080800F400831267
:100E680003130C1E382F392F332F740899000800EC
:100E78000430831603138100643083120313810046
:100E88008B16080064008001840A040603190034E4
:100E98000406472F83120313310808008312031333
:0A0EA800B10108008B170B170800BA
:08400000FF3FFF3FFF3FFF3FC0
:02400E00761822
:00000001FF
