:060000000A128A110E280D
:10000800FE00030EF1000408F2000A08F3000A12C9
:100018008A11872D0A128A111128F601F701F801B1
:10002800F9018313203084003B300A128A114426D8
:100038000A128A1183010A128A1122280A128A11C5
:10004800FF250A128A110A128A11EA250A128A1150
:100058000A128A113A260A128A110A128A111126DC
:100068000A128A110A128A1154260A128A11FF30BA
:100078008316031392000730831203139200B5010D
:100088007610F6107611F6117612F612AF01B0015D
:10009800AD01AE01BA01B901B801B701A901AA01C0
:1000A800A701A80164008312031306185C285D28C1
:1000B8006C287618602861286F2800303002653077
:1000C80003192F02031C69286A286F2876146F28E1
:1000D800AF01B00176108618722873288228F618A6
:1000E80076287728852800302E02653003192D02DE
:1000F800031C7F2880288528F6148528AD01AE01C9
:10010800F610061988288928952876198C288D28AC
:10011800A72865303A02031C92289328A728761549
:10012800A728BA017611761F9A289B28A728B50117
:1001380076130F30F8040F30F80578080A128A1180
:1001480030260A128A11831203138619AC28AD28A7
:10015800BA28F619B028B128BD2865303902031C21
:10016800B628B728BD28F6150714BD28B901F61119
:100178000710061AC028C128CE28761AC428C52810
:10018800D12865303802031CCA28CB28D128761616
:100198008714D128B80176128710861AD428D52852
:1001A800E128F61AD828D928E32865303702031C35
:1001B800DE28DF28E328F616E328B701F6126930AF
:1001C80027062804031DE928EA280A292508260401
:1001D800031DEF28F028F82807150130A507031894
:1001E800A60A0030A6070A29693025062604031D39
:1001F800FE28FF280A290F3097006930F4000030E4
:10020800F5000A128A11CF250A128A11AA30831220
:10021800031327062804031D122913293329250847
:100228002604031D18291929212907150130A507B6
:100238000318A60A0030A6073329AA302506260483
:10024800031D2729282933290F309700AA30F400E5
:100258000030F5000A128A11CF250A128A1183127A
:10026800031327082804031D3A293B293F2997012E
:100278000711A501A60100302A020B300319290233
:10028800031C47294829EC2CA901AA01280826069D
:10029800031D502927082506031953295429EC2C36
:1002A80028082602031D5A292708250203185D2954
:1002B8005E29772903302602E8300319250203183E
:1002C800662967296D290130A5070318A60A003099
:1002D800A6072608F5002508F4000A128A11CF257A
:1002E8000A128A11EC2C2508260403197C297D2979
:1002F8006D290130A5020030031CA603A6026D2952
:1003080001302C02F43003192B0203188C298D2993
:1003180091298514851505159F29851085110511C5
:1003280003302C02E93003192B02031C9C299D2958
:100338009F29AB01AC01A701A80187128512761C81
:10034800A629A7295628F61CAA29AB295628B5019B
:10035800B50A5628761CB129B2295628F61CB529A3
:10036800B629562801303002F43003192F02031839
:10037800BE29BF29372D01302E02F43003192D0272
:100388000318C729C829372D0230BD003D08B5001C
:10039800562885108511051505108516F613771052
:1003A800F901A301A401AB01AC010330BD003D0874
:1003B800B500562813302C02893003192B02031C70
:1003C800E629E729EC291130BD003D08B50056287B
:1003D800761DEF29F029372DAB01AC010430BD00A3
:1003E8003D08B50056287617761EFB29FC29FF29FB
:1003F800A701A8010C2AF61E022A032A082AAA30F5
:10040800A7000030A8000C2A6930A7000030A80017
:1004180007302C02D13003192B02031C142A152A89
:10042800562887160F30F804F61D1B2A1C2A212A85
:1004380078080F399038F8002E2A761E242A252AA3
:100448002A2A78080F395038F8002E2A78080F39E8
:100458003038F80078080A128A1130260A128A11F0
:1004680083120313AB01AC010530BD003D08B50094
:10047800562813302C02893003192B02031C452AF5
:10048800462A4A2A0630BD003D08B5000A128A11DC
:100498004C260A128A11003A031D532A542A582A54
:1004A80083120313B601662A5130831203133602EE
:1004B800031C5F2A602A662A0A128A1150260A1229
:1004C8008A11542A0A128A114C260A128A11013AF0
:1004D800031D6F2A702A56280A128A1122260A1228
:1004E8008A1183120313BD003D08F80078080F39FC
:1004F800003A031D802A812A5628780E0F390F3AB0
:10050800031D872A882A56281230BD003D08B500E9
:1005180076130F30F8040F30F80578080A128A119C
:1005280030260A128A115628761E9B2A9C2AA12A4E
:100538006930A7000030A800A52A0A30A7000030BB
:10054800A800AB01AC010730BD003D08B500562836
:100558002E302C02E13003192B020318B42AB52AD5
:10056800BD2A230A033003192406031DBC2ABD2A09
:10057800CE2A0B302C02B93003192B02031CC52AD2
:10058800C62A372DA301A401F9010A30BD003D0890
:10059800B50056280830BD003D08B5005628013082
:1005A800BD003D08F9070B3079020318DC2ADD2A63
:1005B800F72AB6010A128A1150260A128A117808F7
:1005C8007906F0397906F800F030F80478080A124C
:1005D8008A1130260A128A11093083120313BD00CA
:1005E8003D08B5005628F901562851303602031C3B
:1005F800FE2AFF2A002BA72A0A128A114C260A1261
:100608008A11013A031D092B0A2B372D0A128A1168
:1006180022260A128A1183120313BD003D08F8002E
:1006280078080F397906031D1A2B1B2BA72A780E79
:100638000F39003A0319212B222BA72A372B231411
:10064800A72AA314A72A2315A72AA315A72A23167E
:10065800A72AA316A72A2317A72AA317A72A241469
:10066800A72AA414A72A7908BD00BE013E08003AAB
:1006780003193F2BA72A3D08013A0319232B033AF4
:100688000319252B013A0319272B073A0319292B9C
:10069800013A03192B2B033A03192D2B013A03199D
:1006A8002F2B0F3A0319312B013A0319332B033A35
:1006B8000319352BA72A761E622B632B682B0A3069
:1006C800A7000030A800752BF61E6B2B6C2B712B26
:1006D800AA30A7000030A800752B6930A7000030A9
:1006E800A800AB01AC010B30BD003D08B5000F30D0
:1006F800F80478080F397038F80078080A128A1157
:1007080030260A128A11562827302C021130031974
:100718002B020318902B912B992B230A03300319D2
:100728002406031D982B992BB72B1F302C02413020
:1007380003192B020318A12BA22BA62BF61FA52BFE
:10074800A62B5628A301A401F901F61FAC2BAD2B4B
:10075800B22B0F30BD003D08B50056280E30BD0045
:100768003D08B50056280C30BD003D08B500562898
:100778000130BD003D08F9070B3079020318C52B7D
:10078800C62BF72AB6010A128A1150260A128A11B4
:1007980078087906F0397906F800F030F804780816
:1007A8000A128A1130260A128A110D308312031395
:1007B800BD003D08B500562851303602031CE52B14
:1007C800E62BEB2B0B30BD003D08B50056280A126E
:1007D8008A114C260A128A11013A031DF42BF52BB3
:1007E800372D0A128A1122260A128A11831203133C
:1007F800BD003D08F80078080F397906031D052C5F
:10080800062CE62B780E0F39003A03190C2C0D2C08
:10081800E62B222C2314E62BA314E62B2315E62B18
:10082800A315E62B2316E62BA316E62B2317E62B98
:10083800A317E62B2414E62BA414E62B7908BD0095
:10084800BE013E08003A03192A2CE62B3D08013A5E
:1008580003190E2C033A0319102C013A0319122C10
:10086800073A0319142C013A0319162C033A0319F1
:10087800182C013A03191A2C0F3A03191C2C013AA7
:1008880003191E2C033A0319202CE62BF617063001
:10089800BD003D08B5000F30F80478080F39C0389E
:1008A800F80078080A128A1130260A128A11562886
:1008B8000130BD003D08F9070B3079020318652C9B
:1008C800662C802CB6010A128A1150260A128A1147
:1008D80078087906F0397906F800F030F8047808D5
:1008E8000A128A1130260A128A1110308312031351
:1008F800BD003D08B5005628771C832C842C892C14
:100908001230BD003D08B50056281330BD003D0823
:10091800B500562851303602031C932C942C962C83
:100928007714AD2B0A128A114C260A128A11013A41
:10093800031D9F2CA02C372D0A128A1122260A1279
:100948008A1183120313BD003D08F80078080F3997
:100958007906031DB02CB12C942C780E0F39083A67
:100968000319B72CB82CAD2B942C0F30F8040F308A
:10097800F80578080A128A1130260A128A11831299
:100988000313A701A80185140514AB01AC011430A9
:10099800BD003D08B5005628A701A8018514051417
:1009A800AB01AC01CB2CA701A8018515CB2C0730D6
:1009B8002C02D13003192B02031CE32CE42CE72C66
:1009C8000510B501B50A0511871285127613562848
:1009D800831203133508BD00BE013E08003A03190F
:1009E800F62C56283D08003A03198429013A0319C0
:1009F800AE29033A0319CD29013A0319DE29073A2A
:100A08000319F729013A03193D2A033A0319982AC9
:100A1800013A0319AC2A0F3A0319D32A013A0319E8
:100A2800F92A033A03195F2B013A0319882B073A6D
:100A38000319BC2B013A0319E02B033A03194A2C7A
:100A4800013A03195C2C1F3A03198E2C013A031939
:100A5800B92C033A0319D02C013A0319D72C073AB9
:100A68000319DB2C562856280A128A110E28013041
:100A780083120313AF070318B00A0030B00703301E
:100A88003002E93003192F02031C4B2D4C2D502D39
:100A9800E830AF000330B0000130AD070318AE0AEC
:100AA8000030AE0703302E02E93003192D02031C73
:100AB8005E2D5F2D632DE830AD000330AE000130B0
:100AC800F0007008BA070130F0007008B90701306B
:100AD800F0007008B8070130F0007008B70701305F
:100AE800AB070318AC0A0030AC070130A90703189C
:100AF800AA0A0030AA070130F0007008B60764306F
:100B080081000B1108008B1E8A2D8B2D942D0B1D37
:100B18008E2D8F2D942D0A128A113B250A128A11C7
:100B2800831603138C1E992D9A2DA52D831203135A
:100B38008C1E9F2DA02DA52D0A128A11AE250A12F2
:100B48008A1173088A0072088400710E8300FE0EF1
:100B58007E0E0900831203131A08F0003108203EA4
:100B680084007008831380000130F0007008B1071A
:100B780003303102031CC12DC22DC62D0230F000F6
:100B88007008B100981CC92DCA2DCD2D1812181641
:100B9800B1018C120800750883120313BC00740895
:100BA800BB000310BC0CBB0C0310BC0CBB0C3B08FB
:100BB80095007408BB0003300310BB0DFF3E031DF6
:100BC800E02D03103B0D1704970008000F30831227
:100BD80003139700FF308316031392000730831224
:100BE800031392000030F400F5000A128A11CF2591
:100BF8000A128A11080083120313850186018701EE
:100C0800D030831603138500FF30860090308700AC
:100C180006309F00043081000800903083120313CF
:100C280098002030831603139800813099008312AE
:100C38000313B101831603138C16080001308312C5
:100C48000313B1023108203E840083130008F40026
:100C58007408F50075080800F400831203130C1ECD
:100C6800362E372E312E740899000800043083166A
:100C78000313810064308312031381008B1608006C
:100C880064008001840A0406031900340406452E12
:100C9800831203133108080083120313B1010800FB
:060CA8008B170B1708007A
:02400E00761822
:00000001FF
